:100000000C9434000C9483000C94B3000C94E30023
:100010000C9451000C9453000C9451000C9451001A
:100020000C9451000C9451000C9451000C9451000C
:100030000C9451000C9451000C9451000C945100FC
:100040000C9451000C9451000C9451000C945100EC
:100050000C9451000C9451000C9451000C945100DC
:100060000C9451000C94510011241FBECFEFD8E026
:10007000DEBFCDBF11E0A0E0B1E0ECEEF2E102C0E6
:1000800005900D92A230B107D9F711E0A2E0B1E0DE
:1000900001C01D92AD36B107E1F70E9422090C9410
:1000A00074090C9400001F920F920FB60F92112446
:1000B0002F933F938F939F93499B09C08091840016
:1000C00090918500909349018093480113C081E08D
:1000D00080935A018091840090918500209148017D
:1000E00030914901821B930B90935E0180935D01D7
:1000F00010925A019F918F913F912F910F900FBEB7
:100100000F901F9018951F920F920FB60F92112407
:100110002F933F938F939F934A9B09C080918400B4
:1001200090918500909328018093270113C081E06E
:1001300080935A018091840090918500209127013D
:1001400030912801821B930B90933E0180933D01D7
:1001500010925A019F918F913F912F910F900FBE56
:100160000F901F9018951F920F920FB60F921124A7
:100170002F933F938F939F934B9B09C08091840053
:1001800090918500909334018093330113C081E0F6
:1001900080935A01809184009091850020913301D1
:1001A00030913401821B930B909353018093520141
:1001B00010925A019F918F913F912F910F900FBEF6
:1001C0000F901F9018951F920F920FB60F92112447
:1001D0002F933F938F939F931F9B09C0809184001F
:1001E00090918500909351018093500113C081E05C
:1001F00080935A0180918400909185002091500154
:1002000030915101821B930B90932A018093290115
:1002100010925A019F918F913F912F910F900FBE95
:100220000F901F9018958FE380937E0010927B00B3
:10023000089583E080937C0086EC80937A0080911F
:100240007A0086FDFCCF409178008091790090E0A3
:1002500023E030E082279327982F882750E02FEF64
:1002600030E042275327840F951F90934B018093D2
:100270004A016AE070E00E94270970933801609398
:10028000370184E080937C0086EC80937A00809133
:100290007A0086FDFCCF409178008091790090E053
:1002A00023E030E082279327982F882750E02FEF14
:1002B00030E042275327840F951F90934D01809380
:1002C0004C016AE070E00E94270970933A01609344
:1002D000390185E080937C0086EC80937A008091E0
:1002E0007A0086FDFCCF409178008091790090E003
:1002F00023E030E082279327982F882750E02FEFC4
:1003000030E042275327840F951F90934F0180932D
:100310004E016AE070E00E94270970933C016093EF
:100320003B01089580937C0086EC80937A00809155
:100330007A0086FDFCCF0895482F82E080937C00F0
:1003400086EC80937A0080917A0086FDFCCF309114
:10035000780020917900922F80E0BC01630F711D1D
:100360009B0170931F0160931E01442351F48091FF
:10037000040190910501281B390B30931F01209334
:100380001E0181E080937C0086EC80937A0080914E
:100390007A0086FDFCCF3091780020917900922F71
:1003A00080E0BC01630F711D9B017093210160937C
:1003B0002001442351F48091060190910701281BEC
:1003C000390B309321012093200110927C0086ECA0
:1003D00080937A0080917A0086FDFCCF309178007E
:1003E00020917900922F80E0BC01630F711D9B0169
:1003F0007093230160932201442351F480910801FA
:1004000090910901281B390B30932301209322017D
:1004100008951F930E941901109205011092040182
:100420001092070110920601109209011092080122
:1004300010E081E00E949C0160910401709105012F
:1004400080911E0190911F01680F791F7093050123
:1004500060930401409106015091070180912001B1
:1004600090912101480F591F5093070140930601B5
:10047000209108013091090180912201909123017E
:10048000280F391F30930901209308011F5F103294
:1004900081F6E5E075956795EA95E1F770930501BA
:1004A0006093040175E0559547957A95E1F750936F
:1004B00007014093060165E0359527956A95E1F7B8
:1004C000309309012093080181E0809326011F9158
:1004D000089580915A018823E1F780915D01909100
:1004E0005E012091650130916601821B930B959509
:1004F00087959595879590932C0180932B018091FA
:100500005A018823E1F780913D0190913E012091AD
:10051000670130916801821B930B9595879595959E
:100520008795909346018093450180915A018823D5
:10053000E1F780915201909153012091690130912E
:100540006A01821B930BA3E095958795AA95E1F725
:1005500090931D0180931C0180915A018823E1F73B
:100560008091290190912A0120916B0130916C01B9
:10057000821B930B90931701809316019595879595
:100580009595879590932E0180932D0108958091E4
:100590000A01882309F4F8C0809124019091250173
:1005A00097FF05C0109225011092240109C08536DD
:1005B000910534F084E690E0909325018093240126
:1005C00080912F019091300197FF05C0109230016A
:1005D00010922F0109C0893C910534F088EC90E01D
:1005E0009093300180932F018091410190914201BD
:1005F00097FF05C0109242011092410109C0893C49
:10060000910534F088EC90E0909342018093410191
:10061000809135019091360197FF05C01092360107
:100620001092350109C0893C910534F088EC90E0C6
:10063000909336018093350180915B0190915C012C
:1006400097FF05C010925C0110925B0109C0893CC4
:10065000910534F088EC90E090935C0180935B010D
:1006600080918400909185002091130130911401B4
:10067000821B930B9093120180931101A89816BCD2
:100680006AE070E00E9427096F5F60930C01772792
:1006900067FD709584E690E0861B970B90931001A0
:1006A00080930F012091240130912501280F391FDB
:1006B000A89816BCA0912F01B0913001E0914101A2
:1006C000F0914201609135017091360140915B01DA
:1006D00050915C0190E026C086B58035E8F386B580
:1006E000805586BD2115310521F02150304009F497
:1006F0002A98109719F0119709F42998309719F052
:10070000319709F428986115710521F06150704006
:1007100009F45F984115510521F04150504009F40A
:100720005E989F5F983CC0F230932501209324018E
:10073000B0933001A0932F01F0934201E093410167
:10074000709336016093350150935C0140935B01D7
:10075000909315012091000130910101215030400A
:10076000A89816BC08C086B58035E8F386B58055D4
:1007700086BD2150304021153105A9F78FEF9FEF3D
:1007800090930E0180930D0180914701882309F118
:1007900080918400909185009093140180931301BF
:1007A00051E050930A012A9A40910B01242F30E026
:1007B00080910201909103012817390739F4299A91
:1007C000289A5F9A5E9A50930B0108954F5F409369
:1007D0000B01089581E08093620180936301109280
:1007E000640120EF35E0309366012093650130937A
:1007F00068012093670180E694E090936A018093FA
:10080000690130936C0120936B01089508C00000CA
:10081000000000000000000000000000815088235C
:10082000B1F708951F93CF93DF93EC0108C010E058
:1008300084E60E9406041F5F1A30D1F721972097A3
:10084000B1F7DF91CF911F910895EF92FF920F932F
:100850001F93CF93DF930E94690280911C019091B6
:100860001D0197FF43C12091B20080911801281B00
:100870008091190190911A01820F911D90931A0194
:10088000809319018091B200809318012091470153
:1008900080912D0190912E01222319F4CC977CF0A8
:1008A00003C0855C9F4F5CF48091450190914601A7
:1008B00097FF03C0909581959F4F4F9724F010921A
:1008C0001A01109219018091190190911A01835413
:1008D0009F4010F181E08227809347012E9810926B
:1008E000600110925F018823A1F00E94090210921A
:1008F0000A012E9A82E390E09093400180933F0199
:10090000909332018093310190934401809343018D
:1009100078C280910A0171C2222309F44CC08091EF
:100920002D0190912E01845C9F4F0CF044C080916A
:10093000450190914601CD97F4F180915F0190912E
:100940006001892B79F58FE69EEF9093600180938B
:100950005F010E94090210920A0184E690E00E9461
:10096000120482E390E09093400180933F019093C2
:10097000320180933101909344018093430110929E
:100980001B0110E00BC02E9889E190E00E94120438
:100990002E9A89E190E00E9412041F5F123098F3B2
:1009A00010931B0180915F019091600101969093DB
:1009B000600180935F0180914701882309F449C059
:1009C00080912D0190912E01845C9F4F0CF041C0CD
:1009D0008091450190914601845C9F4FD4F58091B0
:1009E0005F0190916001892B59F58FE69EEF9093FE
:1009F000600180935F010E94090210920A0181E464
:100A000090E09093400180933F0190933201809356
:100A10003101909344018093430110921B0110E037
:100A20000BC02E9889E190E00E9412042E9A89E171
:100A300090E00E9412041F5F143098F310931B0182
:100A400080915F0190916001019690936001809385
:100A50005F0180914701882309F448C080912D01EE
:100A600090912E01CD970CF441C080914501909159
:100A70004601845C9F4FD4F580915F0190916001A5
:100A8000892B59F58FE69EEF9093600180935F016B
:100A90000E94090210920A0182E390E090934001C3
:100AA00080933F0190933201809331018AE590E079
:100AB000909344018093430110E00BC02E9889E18C
:100AC00090E00E9412042E9A89E190E00E941204A4
:100AD0001F5F143098F310931B0180915F01909178
:100AE000600101969093600180935F0180E00E9415
:100AF0009C01E0901C01F0901D01F0922501E09214
:100B000024018091370190913801880F991F20911D
:100B10001E0130911F01AC01429FC001439F900D07
:100B2000529F900D112468EC70E00E943B09FB017C
:100B300070931F0160931E0120913F01309140018D
:100B400080912B0190912C01AC01249FC001259F25
:100B5000900D349F900D112464E670E00E943B09D3
:100B6000809162018823C9F420915401309155018C
:100B7000CB01821B930B8E0F9F1FB3E0959587953A
:100B8000BA95E1F790932C0180932B01820F931F6C
:100B9000909355018093540118C0209154013091D5
:100BA0005501CB01820F931F8E1B9F0BA3E09595E0
:100BB0008795AA95E1F790932C0180932B01281B30
:100BC000390B309355012093540100915401109139
:100BD00055018091390190913A01880F991F209118
:100BE000200130912101AC01429FC001439F900D33
:100BF000529F900D112468EC70E00E943B09FB01AC
:100C000070932101609320012091310130913201D4
:100C10008091450190914601AC01249FC001259F20
:100C2000900D349F900D112464E670E00E943B0902
:100C3000809163018823C9F42091560130915701B6
:100C4000CB01821B930B8E0F9F1FE3E09595879539
:100C5000EA95E1F79093460180934501820F931F37
:100C6000909357018093560118C0209156013091FE
:100C70005701CB01820F931F8E1B9F0B73E095953D
:100C800087957A95E1F79093460180934501281B5B
:100C9000390B3093570120935601C0915601D091E2
:100CA000570180913B0190913C01880F991F209141
:100CB000220130912301AC01429FC001439F900D5E
:100CC000529F900D112468EC70E00E943B09FB01DB
:100CD00070932301609322012091430130914401DC
:100CE00080912D0190912E01AC01249FC001259F80
:100CF000900D349F900D112464E670E00E943B0932
:100D0000809164018823C9F42091580130915901E0
:100D1000CB01821B930B8E0F9F1F53E095958795F8
:100D20005A95E1F790932E0180932D01820F931F26
:100D3000909359018093580118C020915801309127
:100D40005901CB01820F931F8E1B9F0B43E095959A
:100D500087954A95E1F790932E0180932D01281BEA
:100D6000390B30935901209358012091580130914B
:100D70005901C801820F931F8C5A9F4F90933001E5
:100D800080932F01CE01820F931F8C5A9F4F909317
:100D9000420180934101225A3F4FC901801B910BB0
:100DA00090933601809335012C1B3D0B30935C01F1
:100DB00020935B011E141F0444F480914701882393
:100DC00021F0809126018823B1F410922501109220
:100DD000240184E590E09093300180932F0190935B
:100DE00042018093410190933601809335019093A5
:100DF0005C0180935B0180914701882311F00E9480
:100E0000C702DF91CF911F910F91FF90EF9008954E
:100E10001F93CF93DF93EC01162F0E945E09811779
:100E200021F0CE01612F0E946609DF91CF911F91C1
:100E30000895CF92DF92EF92FF920F931F93CF937B
:100E4000DF938C016B017A01C0E0D0E009C0C601DC
:100E50008C0F9D1FF80161918F010E940807219658
:100E6000CE15DF05A0F3DF91CF911F910F91FF9079
:100E7000EF90DF90CF900895F89481E691E060E0E4
:100E800070E04CE050E00E9419077894089580E0EB
:100E900090E00E945E09873441F087E4809361010D
:100EA0000E94EA030E943C07089581E691E060E019
:100EB00070E04CE050E00E944E090895CF92DF921E
:100EC000EF92FF920F931F93CF93DF9385B78061CB
:100ED00085BF5198529853982798389839983A98DE
:100EE0003D983C983B98229A219A209A579A569A74
:100EF000269A2E9849984A984B981F988091680096
:100F000081608093680080916800846080936800AD
:100F100080916B00806880936B0080916D0082608F
:100F200080936D0085E08093690083E08DBB8CB376
:100F300083608CBB14BC81E085BD10926E00109262
:100F4000800082E0809381001092B00087E080935F
:100F5000B1001092700017BA1092B20021E030E098
:100F6000F901319680E991E0B9010E9427096333C4
:100F7000710510F09F01F4CF30930301209302011B
:100F800084E590E09093550180935401909357012C
:100F90008093560190935901809358010E9447070E
:100FA0008FE380937E0010927B00109226011092B6
:100FB000470110925A0180916501909166019093CA
:100FC0005E0180935D01809167019091680190932B
:100FD0003E0180933D018091690190916A01909357
:100FE00053018093520180916B0190916C01909319
:100FF0002A01809329012E9A86E990E00E9412042A
:101000002E9878948CED95E00E9412040E941901AC
:101010000E94190180914C0190914D01C39708F0F5
:101020006DC080914A0190914B01C39748F4809123
:101030004E0190914F01C39718F40E94EA03FFCF2D
:10104000109266011092650110926801109267017A
:1010500010926C0110926B01C0E0D0E02E9A89E1F1
:1010600090E00E9412042E9889E190E00E94120400
:101070002196C330D10591F786EA9EE00E941204C2
:10108000EE24FF2400E010E0CC24DD24C0E0D0E01A
:101090000E94690280912B0190912C01E80EF91EAB
:1010A0008091450190914601080F191F80912D01F3
:1010B00090912E01C80ED91E84E690E00E94120481
:1010C0002196C430D10521F7F0926601E0926501C6
:1010D000109368010093670180E694E090936A01A1
:1010E00080936901D0926C01C0926B010E943C0711
:1010F0002E9A86E990E00E9412042E9880914A016F
:1011000090914B01C39708F050C0C0E0D0E02E9AF8
:1011100089E190E00E9412042E9889E190E00E94FB
:1011200012042196C330D10591F711E00E946902A3
:1011300080912B0190912C01825E9F4F2CF4109294
:1011400062010E943C072E9A80912B0190912C0104
:101150004F971CF0109362011FC080914501909140
:1011600046012FEF823E92071CF41092630114C0D7
:101170004F971CF0109363010FC080912D01909147
:101180002E012FEF823E92071CF41092640104C0DE
:101190004F972CF0109364010E943C072E9A82E333
:1011A00090E00E9412042E98C1CF80914E01909140
:1011B0004F01C397F0F5C0E0D0E02E9A89E190E0AE
:1011C0000E9412042E9889E190E00E941204219658
:1011D000C330D10591F781E08093470188E097E023
:1011E000909301018093000181E090E090930301CE
:1011F00080930201CCE8D0E00E94690280911C013A
:1012000090911D019093250180932401D09330018A
:10121000C0932F01D0934201C0934101D093360176
:10122000C0933501D0935C01C0935B010E94C7025B
:10123000E3CFDF91CF911F910F91FF90EF90DF905F
:10124000CF9008950E945E070E942504FDCFAA1B3F
:10125000BB1B51E107C0AA1FBB1FA617B70710F0A1
:10126000A61BB70B881F991F5A95A9F780959095D3
:10127000BC01CD01089597FB092E07260AD077FD02
:1012800004D0E5DF06D000201AF4709561957F4FF9
:101290000895F6F7909581959F4F0895DC01CB0155
:1012A000FC01F999FECF06C0F2BDE1BDF89A319676
:1012B00000B40D9241505040B8F70895F999FECF0F
:1012C00092BD81BDF89A992780B50895262FF99986
:1012D000FECF1FBA92BD81BD20BD0FB6F894FA9A19
:0C12E000F99A0FBE01960895F894FFCF14
:0212EC002C01D3
:00000001FF
