:020000020000FC
:100000001AC063C476C489C415C04BC413C012C0DF
:1000100011C010C00FC00EC00DC00CC00BC00AC074
:1000200009C008C007C006C005C004C003C002C0A4
:1000300001C000C018950FEF0DBF02E00EBF0FE723
:1000400004B900EC07B901EF0AB905E000936800B4
:1000500000E800936B0002E000936D0005E0009360
:10006000690003E00DBB02E00093810000270093CC
:10007000180200931F0200932002009321026627BA
:10008000A0EFB5E08A2E9B2EAA2EBB2ECA2EDB2E09
:10009000EA2EFB2E78942E9AE0E0FCD32E98F4E61C
:1000A000E8ECF8D3FA95E1F7B9D3B8D300E008D774
:1000B00000E0019303E3019300E0019300E001936A
:1000C0000AE10093100200E00093110236D50CF013
:1000D00047C04AE02E9AE0E0DDD32E98E0E0DAD384
:1000E0004A95C1F7E4EBD6D32CD400E0E9D600E082
:1000F00001930EE1019300E0019300E0019301E020
:100100000093100200E00093110217D5E0E0E4F440
:1001100002E00093100200E0009311020ED5E1E02E
:100120009CF403E00093100200E00093110205D557
:10013000E2E054F404E00093100200E000931102A6
:10014000FCD4E3E00CF4CECFF0E0ABD4A0E80A2777
:10015000AED42E9AE0E09ED32E98E0E09BD3F9CF68
:1001600000E0AED600E0019303E3019300E00193C9
:1001700000E001930CE10093100200E000931102F3
:10018000DCD454F54AE02E9AE0E084D32E98E0E0E7
:1001900081D34A95C1F7E4EB7DD3D3D30CE0009330
:1001A000100204E000931102E5D40DE00093100268
:1001B00004E000931102DED40EE00093100204E08C
:1001C00000931102D7D40FE00093100204E00093D3
:1001D0001102D0D416D2DFCF76D420D3B2D300917F
:1001E00022020023C9F100E06BD60FEF01930EEC61
:1001F000019300E0019300E0019303E000931002FB
:1002000000E00093110299D45CF40091210203955F
:1002100000932102023329F5002700931F021CC01E
:1002200000E04ED600E0019302E3019300E0019369
:1002300000E0019303E00093100200E0009311023C
:100240007CD454F0009120020395009320020233E5
:1002500041F40FEF00931F02002700932102009347
:10026000200200912202002309F43EC000911D02E9
:10027000039519F000931D023AC009E057D40AE033
:1002800055D40BE053D440E1B6D209E000931002FC
:1002900001E10093110281D40AE00093100202E10F
:1002A000009311027AD40BE00093100203E1009353
:1002B000110273D44A9541F709E069D404E0E3D30D
:1002C00009E05FD40AE063D404E0DDD30AE059D446
:1002D0000BE05DD404E0D7D30BE053D40FEF0093D1
:1002E000180200931D0203C0002700931D0283D251
:1002F00001E10093100209E00093110278D402E1B9
:10030000009310020AE00093110271D403E10093FC
:1003100010020BE0009311026AD40CE0009310026B
:1003200004E00093110226D40DE00093100204E0D3
:10033000009311021FD40EE00093100204E000931A
:10034000110218D40FE00093100204E00093110290
:1003500011D40AE11CD40AE096D300911A020023BA
:100360000AF4C1D300E00DD401E10093100200E0D3
:100370000093110266D40AE10AD40BE084D300E0B2
:1003800000D401E00093100200E00093110259D460
:1003900001E00093100201E100931102FED30DE091
:1003A0000093100201E000931102F7D30EE00093D6
:1003B000100201E0009311021AD40BE1E8D30AE025
:1003C00062D300911B0200230AF48DD300E0D9D33D
:1003D00002E10093100200E00093110232D40BE11D
:1003E000D6D30BE050D300E0CCD302E00093100250
:1003F00000E00093110225D402E00093100202E114
:1004000000931102CAD30CE00093100202E00093A3
:100410001102C3D30FE00093100202E00093110217
:10042000E6D30CE1B4D30AE02ED300911C020023E2
:100430000AF459D300E0A5D303E10093100200E0D1
:1004400000931102FED30CE1A2D30BE01CD300E019
:1004500098D303E00093100200E000931102F1D35F
:1004600003E00093100203E10093110296D300E031
:1004700027D50FEF019302EE019300E0019300E016
:10048000019303E00093100200E00093110255D3A2
:100490003CF403E00093100200E0009311026AD3E1
:1004A00000E00ED500E001930EE1019300E001931E
:1004B00000E0019303E00093100200E000931102BA
:1004C0003CD33CF003E00093100200E000931102E3
:1004D00051D30CE00093100203E00093110287D384
:1004E0000DE00093100203E00093110256D30EE0DA
:1004F0000093100203E0009311024FD30FE000932A
:10050000100203E00093110272D300E0D9D400E09E
:1005100001930AE0019300E0019300E001930CE0F5
:100520000093100200E00093110207D33CF40CE0AA
:100530000093100200E0009311021CD30DE0009321
:10054000100200E000931102F8D23CF40DE0009399
:10055000100200E0009311020DD30EE00093100290
:1005600000E000931102E9D23CF40EE00093100287
:1005700000E000931102FED20FE00093100200E0B1
:1005800000931102DAD23CF40FE00093100200E075
:1005900000931102EFD2A0911802C0911F02AC2368
:1005A00011F42E9801C02E9A009122020095A023EA
:1005B00031F500E085D400E0019300E0019300E014
:1005C000019300E001930CE00093100200E000931F
:1005D0001102D0D20DE00093100200E0009311024E
:1005E000C9D20EE00093100200E000931102C2D2C3
:1005F0000FE00093100200E000931102BBD201D083
:10060000EBCD00E05DD400E0019300E0019300E059
:10061000019300E001930CE00093100200E00093CE
:1006200011028BD23CF40CE00093100200E0009326
:100630001102A0D20DE00093100200E0009311021D
:100640007CD23CF40DE00093100200E00093110214
:1006500091D20EE00093100200E0009311026DD2DF
:100660003CF40EE00093100200E00093110282D2ED
:100670000FE00093100200E0009311025ED23CF400
:100680000FE00093100200E00093110273D200E02B
:1006900017D400E0019304E6019300E0019300E029
:1006A00001930CE00093100200E00093110245D288
:1006B0003CF00CE00093100200E0009311025AD2CB
:1006C0000DE00093100200E00093110236D23CF0DE
:1006D0000DE00093100200E0009311024BD20EE0F7
:1006E0000093100200E00093110227D23CF00EE0CC
:1006F0000093100200E0009311023CD20FE000933F
:10070000100200E00093110218D23CF00FE00093B9
:10071000100200E0009311022DD200E0D1D300E0DE
:10072000019304E6019300E0019300E001930CE0E3
:100730000093100200E0009311022FD20DE000930D
:10074000100200E00093110228D20EE00093100284
:1007500000E00093110221D20FE00093100200E0AC
:10076000009311021AD20CE012D202E093D10CE0F5
:1007700008D20DE00CD202E08DD10DE002D20EE0E5
:1007800006D202E087D10EE0FCD10FE000D202E0F9
:1007900081D10FE0F6D10FE0FAD1AF93BF930EE015
:1007A000F6D1AF93BF930DE0F2D1AF93BF930CE0BE
:1007B000EED1CD01BF91AF91DF91CF91FF91EF913C
:1007C0002A9A299A289A5F9A002741E253E0815099
:1007D000900B08F42A98A150B00B08F42998C15046
:1007E000D00B08F42898E150F00B08F45F984150C2
:1007F000500B68F708950FE300937E0000E000932C
:100800007B0002E037D001E1BCD101E033D002E14E
:10081000B8D100E02FD003E1B4D10895E3E0F0E0D7
:1008200040D100931E020FE300937E0000E000938E
:100830007B0003E01FD000911E0200230AF015D0B8
:100840000AE19FD104E016D000911E0200230AF0B5
:100850000CD00BE196D105E00DD000911E020023D3
:100860000AF003D00CE18DD1089503E0B0270FEF1B
:10087000A027089500937C0006EC00937A00009175
:100880007A0006FDFCCFA0917800B0917900CC27CA
:10089000DD27089507EC00000A95E9F7EA95D1F7FE
:1008A00008956FEF7FB7499B07C0009084001090B8
:1008B000850066277FBF1895809084009090850002
:1008C0008018910866277FBF18956FEF7FB74A9B06
:1008D00007C0209084003090850066277FBF189560
:1008E000A0908400B0908500A218B30866277FBF4F
:1008F00018956FEF7FB74B9B07C0409084005090D6
:10090000850066277FBF1895C0908400D090850031
:10091000C418D50866277FBF18956FEF7FB71F9B58
:1009200007C0609084007090850066277FBF18958F
:10093000E0908400F0908500E618F70866277FBFF6
:1009400018956623F1F7A82DB92D58D0CC27DD27AF
:1009500005E017D15DD001E00093100205E000939F
:10096000110208D16623F1F7AA2DBB2D47D0CC2761
:10097000DD2705E006D14CD002E00093100205E02F
:1009800000931102F7D06623F1F7AC2DBD2D36D0C0
:10099000CC27DD2705E0F5D053D004E0009310020A
:1009A00005E000931102E6D06623F1F7AE2DBF2DCE
:1009B00025D0CC27DD2705E0E4D02AD003E0009342
:1009C000100205E000931102D5D000270093220207
:1009D00000E076D200E0019301E0019300E0019392
:1009E00000E0019304E00093100200E00093110284
:1009F000A4D01CF40FEF009322020895BB233AF415
:100A00000FEFA027B02701E0A00F0027B01F089527
:100A100000E056D205E0019300EF019300E001935E
:100A200000E0019305E00093100200E00093110242
:100A3000DED005E0ACD002E026D005E0A2D00895DB
:100A400000E03ED204E0019300E6019300E0019350
:100A500000E0019305E00093100200E00093110212
:100A6000C6D050F405E02CD200E0019300E00193E1
:100A700000E0019300E0019305E089D003E003D09A
:100A800005E07FD00895B595A795D795C7950A95A8
:100A9000D1F70895CC0FDD1FAA1FBB1F0A95D1F710
:100AA0000895E1BDF2BD01E00FBB00B50895F894D3
:100AB000F999FECFE1BDF2BD00BD04E00FBB02E03D
:100AC0000FBB78940895EE27FF27EBDF00931A02FF
:100AD000E1E0FF27E6DF00931B02E2E0FF27E1DF12
:100AE00000931C02089500270C1BC02F00270D0B3C
:100AF000D02F00270A0BA02F00270B0BB02F089533
:100B0000109313022093140230931502E0931602FF
:100B1000F09317020895109113022091140230915E
:100B20001502E0911602F09117020895C9D100272D
:100B30000193019301930083089500911002C0D1A5
:100B400098D100911102BCD1A1D10091090210915C
:100B50000F0201170091080210910E020107009187
:100B6000070210910D0201070091060210910C027C
:100B700001070895009111020AD00091100201D0DE
:100B800008959ED1B193A193D193C083089598D134
:100B9000B191A191D191C08108950091100290D19D
:100BA000EF93FF9366D1009111028AD16FD100912A
:100BB000090210910F02010F009303020091080235
:100BC00010910E02011F0093020200910702109182
:100BD0000D02011F009301020091060210910C0208
:100BE000011F00930002FF91EF915DD108950091E4
:100BF000100266D1EF93FF933CD10091110260D1B6
:100C000045D10091090210910F02011B00930302CC
:100C10000091080210910E02010B00930202009154
:100C2000070210910D02010B0093010200910602D0
:100C300010910C02010B00930002FF91EF9133D150
:100C40000895009110023CD1EF93FF9312D10091CF
:100C5000110236D11BD1CAD00027009300020093A5
:100C60000102009302020093030200930402009326
:100C700005021091090210930B02109108021093C3
:100C80000A021091070210930902109106021093B4
:100C900008020093060200930702E89420E2009104
:100CA0000C02069500930C0200910D02079500932B
:100CB0000D0200910E02079500930E0200910F02A3
:100CC000079500930F0270F50EF456C000910502CF
:100CD00010910B02010F0093050200910402109184
:100CE0000A02011F009304020091030210910902FD
:100CF000011F009303020091020210910802011FDC
:100D0000009302020091010210910702011F00935B
:100D100001020091000210910602011F00930002DF
:100D2000A2F298F200910B02000F00930B020091C7
:100D30000A02001F00930A0200910902001F00939B
:100D4000090200910802001F0093080200910702A7
:100D5000001F0093070200910602001F0093060285
:100D600008F468942A9509F09ACF20911202222360
:100D70000AF407D0889401C00894FF91EF9193D0B2
:100D8000089521E01FEF00910302021B0127009349
:100D90000302222700910202020B012700930202A4
:100DA00000910102020B0127009301020091000251
:100DB000020B012700930002089521E208942A956E
:100DC00000910302001F0093030200910202001F22
:100DD0000093020200910102001F009301020091A2
:100DE0000002001F0093000250F7089500910602D0
:100DF00010910C02202F2127209312020023DAF4F5
:100E00002FEF31E0009109020227030F009309023E
:100E10003327009108020227031F00930802009164
:100E200007020227031F0093070200910602022710
:100E3000031F009306021123DAF42FEF31E0009133
:100E40000F020227030F00930F02332700910E02B7
:100E50000227031F00930E0200910D020227031FB9
:100E600000930D0200910C020227031F00930C0255
:100E700008950191009306020191009307020191E8
:100E800000930802019100930902089501910093D3
:100E90000C02019100930D02019100930E02019149
:100EA00000930F0208950091000201930091010246
:100EB00001930091020201930091030201930895AE
:100EC000E0E0F1E0000F000FE00F0027F01F0895B1
:00000001FF
